:0200000280007C
:100000000080082051010800C9070800C90708003E
:10001000C9070800C9070800C90708000000000058
:10002000000000000000000000000000CB070800F6
:10003000C907080000000000CF070800D307080028
:10004000C9070800C9070800C9070800C907080050
:10005000C9070800C9070800C9070800C907080040
:10006000D9010800C907080000000000E9060800DF
:100070002107080059070800910708000000000048
:1000800000000000E5010800F1010800C9070800B0
:10009000FD010800C9070800C9070800C9070800D2
:1000A000C907080000000000C9070800C9070800C8
:1000B000C9070800C9070800C9070800C9070800E0
:1000C000C9070800C9070800C9070800C9070800D0
:1000D000C9070800C9070800C9070800C9070800C0
:1000E000C9010800C9070800C9070800C9070800B6
:1000F000C907080010B5054C237833B9044B13B178
:100100000448AFF300800123237010BD640407206E
:1001100000000000A019080008B5064B1BB10648F6
:100120000649AFF300800648036813B1054B03B1DD
:10013000984708BD00000000A019080068040720C7
:10014000A01908000000000008B500F05DF8FEE707
:10015000154B164A10B593421C4601D0002301E00E
:10016000134B07E01349D0188842F9D2E158D15017
:100170000433F7E7104A934203D2002243F8042BDA
:10018000F8E70E490E4B21F0604201F1604122F088
:100190007F02B1F5801F9A6003D29A6842F0005244
:1001A0009A60084B9847FEE7A01908000000072056
:1001B0006404072064040720BC0B0720000008002B
:1001C00000ED00E04901080008B5024B1B6803B1CF
:1001D000984708BD80040720014800F0F9BC00BF23
:1001E00094050720014800F0F3BC00BF400607203B
:1001F000014800F0EDBC00BF68060720014800F090
:10020000E7BC00BF900607202DE9F0413F4D00F00C
:1002100027FA2B684FF47A72B3FBF2F35A1E3C4B69
:10022000F0215A603B4A002482F8231007229C6088
:100230001A6000F02BFDA84620460021013400F092
:1002400093FB4F2CF8D1344C344E354F354B4FF097
:10025000FF35C4F8A0504FF44072C6F8A0502046B5
:10026000C3F8A05001210023C7F8A05000F080F986
:100270000020012100F078FB204601214FF440626C
:10028000002300F075F9204601214FF4405200236D
:1002900000F06EF9384602213022002300F068F9A0
:1002A000304601214FF44062002300F061F92046FE
:1002B00001210322002300F05BF901214FF44042A9
:1002C0000023304600F054F9252000F087F9D8F8D3
:1002D0000010154A0C23154800F094F80123134828
:1002E00000214FF4401200F0EEF800210A460F48BA
:1002F00000F0D4F829460D4800F0FBF80B4800F058
:10030000F4F8BDE8F04100F0AABA00BF2C000720C5
:1003100010E000E000ED00E0000E0E4000100E4086
:1003200000140E4000120E40002D310100000C4060
:100330002DE9F743234D244C284600F05DFB204671
:1003400000F05AFBDFF8B490082213461F490095CD
:1003500001941F4F1F4800F0EDFB1F4D484600F071
:100360004BFBDFF89C80384600F046FB1B4E2846CE
:1003700000F042FB1A4C404600F03EFB304600F0D5
:100380003BFB204600F038FB11221346CDF80090CD
:10039000CDF804801349144800F04CFC1222134697
:1003A000009701961149124800F044FC1422009570
:1003B000019410491346104800F03CFC03B0BDE81E
:1003C000F08300BFB80507200C05072000080E4089
:1003D000A00807209405072028090720B806072051
:1003E00040070720008009404006072000C0094060
:1003F0006806072000400A409006072018080720DA
:10040000840407202DE9F041224D90B06C46064649
:100410000F4690469C460FCD0FC40FCD0FC40FCD95
:100420000FC495E80F0084E80F000123336000211A
:100430004FEA480240F202237160C6F82031C6F844
:100440000411C6F81411B7FBF2F102FB117202B9E4
:1004500001394B1C5B00B7FBF3F70F4B0022B7FBD6
:10046000F3F70CFB07FC5DF82200604505D2013272
:10047000102AF8D14FF0FF3009E07368090289B201
:100480001204194302F470220A437260002010B073
:10049000BDE8F081CC18080040420F004368D20745
:1004A00023F08F03436004D5436843F08003436027
:1004B0007047CB0706D5436801F00E0143F00103F6
:1004C00019434160704710B54468090622431B0771
:1004D00001F07064224303F040531A43426010BDA0
:1004E000012303FA01F1416170474FF6FF73436145
:1004F0007047816270470AB1416670470166704774
:10050000426405290DD8DFE801F00D03090D0D0D3A
:10051000036F016F0B4023EA020301E0036F1343F3
:10052000036742607047D30741644CBF4166016670
:1005300012F00A0F14BF01624162930701D413073E
:1005400001D5C0F8801041610160704710B5029C70
:1005500041640CB1416600E001660BB1016500E049
:1005600041650AB1016300E041630161016010BDB2
:10057000F7B51E464B1E05460F461446042B1FD8E2
:10058000DFE803F003030C1212002246FFF7B8FF66
:10059000F2076C644CBF6C662C6603E02146324661
:1005A000FFF7C1FF01200CE006F0010300937B1F61
:1005B0005A425A412146C6F38003FFF7C7FFF1E7CD
:1005C000002003B0F0BD03468068084004D09B695A
:1005D00019420CBF00200120704700002C2819D8B8
:1005E0001F280E4B4FF0010208D802FA00F099695B
:1005F00000EA010282420FD018610DE0203802FAB1
:1006000000F0D3F8081100EA0102824204D0C3F8D6
:10061000000101E0012070470020704700060E40F5
:100620002C2817D81F280D4B4FF0010107D801FACD
:1006300000F09A69024082420ED15A610CE02038E3
:1006400001FA00F0D3F808210240824204D1C3F835
:10065000042101E0012070470020704700060E4091
:100660001A4A4FF480631360C2F80032184B1A6ABA
:10067000D20102D5174A1A6205E0174A1A629A6E29
:10068000D007FCD5F6E7996E114AC903FBD5116B6B
:1006900021F0030141F0010111639A6E1207FCD5AC
:1006A0000E490B4A91629A6E9007FCD5084A1121B7
:1006B00011639A6E1107FCD5054A122111639A6ED7
:1006C0001207FCD5064A074B1A607047000A0E4015
:1006D00000060E400908370109083700013F0D20C8
:1006E00000BD01052C00072038B50B4BDC6CB4FABB
:1006F00084F3DBB21F2B0DD8C3F11F03DDB2074B10
:1007000053F8253003B19847012303FA05F524EA8D
:100710000504ECE738BD00BF000E0E40B00907200D
:1007200038B50B4BDC6CB4FA84F3DBB21F2B0DD85D
:10073000C3F11F03DDB2074B53F8253003B19847CF
:10074000012303FA05F524EA0504ECE738BD00BFF0
:1007500000100E40300A072038B50B4BDC6CB4FAA1
:1007600084F3DBB21F2B0DD8C3F11F03DDB2074B9F
:1007700053F8253003B19847012303FA05F524EA1D
:100780000504ECE738BD00BF00120E40B00A072098
:1007900038B50B4BDC6CB4FA84F3DBB21F2B0DD8ED
:1007A000C3F11F03DDB2074B53F8253003B198475F
:1007B000012303FA05F524EA0504ECE738BD00BF80
:1007C00000140E40300B0720FEE700F00FB800F0D9
:1007D0000DB808B500F008F828B900F0FDF8BDE83C
:1007E000084000F039BA08BD00207047FEE700005D
:1007F000044B1A680AB9044A1A601A68104418604F
:1008000010467047B00B0720BC0B07204FF0FF309D
:1008100070474FF0FF3070474FF400534B6000209B
:10082000704701207047002070470020704700008B
:1008300010B50023934207DA05484469A407FBD5A5
:10084000CC5C0133C461F5E722EAE27010BD00BF61
:1008500000080E40FEE770474FF0FF3070477047CA
:100860002DE9F0413D4E1C2303FB00631A7B044637
:100870000F46002A70D03A4D2A5C02F00F02042A7B
:1008800003D13848597EFFF72BFE2A5D02F00F0393
:10089000022B11DC82B1022B02D16FB9BDE8F081CD
:1008A000012B03D1022F07D1BDE8F081032B03D127
:1008B000012F03D1BDE8F081012F32D01FB1022FEB
:1008C00017D0BDE8F0814FF01C0808FB04F806EBD8
:1008D0000807B868FFF782FE002356F808000321D6
:1008E0007A68FFF745FE2B5D23F00F0343F0020308
:1008F00014E04FF01C0808FB04F806EB0807B86882
:10090000FFF76CFE012356F8080003217A68FFF711
:100910002FFE2B5D23F00F0343F001032B55BDE8A1
:10092000F0811C236343F75812091E440CBF0421B5
:100930000521336938467268FFF71AFE2B5D23F0F4
:100940000F0343F003032B55BB69013304D1B06897
:10095000BDE8F041FFF764BEBDE8F081A00E0800DD
:10096000C807072000000C40F7B5194E1C2303FBF5
:1009700000631B7B04460D4643B3164F3B5C03F0FC
:100980000F03052B02D10121FFF76AFF3B5D03F046
:100990000F0343EA05133B551C235C4333193659B7
:1009A0005C6830462146FFF70EFE38B930462146D6
:1009B0002A4603B0BDE8F040FFF79DBD0123009338
:1009C000304621462A460023FFF7C0FD03B0F0BDA4
:1009D000A00E0800C8070720054A08B51368591C6F
:1009E00004D0013B13600BB9024B984708BD00BF10
:1009F000300007200100072010B5002180220446A6
:100A000000F06CF90023C4F880302046C4F884302C
:100A100010BDD0F88030D0F88420013303F07F037C
:100A2000934204D0D0F880208154C0F880307047C1
:100A3000012070470369D3F88000D3F88430C01ACE
:100A400000F07F0070470369D3F88010D3F884204A
:100A500091421DBFD3F88420985CC0B24FF0FF30A4
:100A600070470369D3F88010D3F8842091420AD0EC
:100A7000D3F88420985CD3F88420013202F07F02FE
:100A8000C3F8842070474FF0FF3070474369D3F8B4
:100A90008010D3F884209142F9D1826953699B0573
:100AA000FCD57047836970B55E694269B607D2F8B4
:100AB0008450D2F8804001D5A54218D0D2F88040A9
:100AC0000C4B01342340002B03DA013B63F07F031E
:100AD0000133D2F884409C42FBD0D2F880401155BB
:100AE0004269C2F88030836902229A6000E0D961CD
:100AF000012070BD7F000080036910B5D3F8842009
:100B00000446C3F8802003685B699847237F01226D
:100B100059B203F01F0302FA03F34909044A2031D2
:100B200042F82130206ABDE81040FFF779BD00BFD0
:100B300000E100E030B5002545604FF47A7585602E
:100B4000044D81610560039D02770561049D036288
:100B5000456130BD1819080070B50446006A0D469D
:100B60001646FFF73BFDA36940F20222C3F820219D
:100B7000AC221A60124A5E6012680121B2FBF5F5E0
:100B80002D094FF0FF321D62DA6061229A60227FE8
:100B900050B202F01F0201FA02F20A49400941F87C
:100BA000202021690022C1F88420C1F880206169D9
:100BB000C1F88420C1F8802050221A6070BD00BFA7
:100BC0002C00072000E100E04FF40062FFF7C4BFF3
:100BD00038B5836904465D69EA0704D599690069F7
:100BE000C9B2FFF716FFAB0716D56369D3F88410B7
:100BF000D3F880209142A2690CD0D3F88410595CBC
:100C0000C9B2D161D3F88420013202F07F02C3F867
:100C1000842001E00223D36015F0600F04D0A369A3
:100C20001A6842F480721A6038BD4FF40C62FFF704
:100C300093BF000073B5069D04460095079D0E46C0
:100C40000195FFF777FF034B20462360666202B0F1
:100C500070BD00BF48190800024B1A6801321A60C3
:100C6000704700BFB40B0720F8B505460E4617467F
:100C70000024BC4207D02B6828461B68315D98478A
:100C800008B10134F5E72046F8BD000070B50F4EFD
:100C90000F4D761BB61007D0043D0024013455F8E3
:100CA000043F9847A642F9D10A4E0B4D00F064FE6E
:100CB000761BB61008D0043D0024013455F8043FDB
:100CC0009847A642F9D170BD70BD00BF84190800D5
:100CD000841908009019080084190800F0B48407EA
:100CE00043D0541E002A3ED0CDB2034603E0621E1C
:100CF000002C38D0144603F8015B9A07F7D1032C77
:100D00002AD9CDB245EA05250F2C45EA054515D966
:100D1000A4F110073F0903F1100606EB07161A4667
:100D2000156055609560D5601032B242F8D104F07C
:100D30000F040137032C03EB07130DD91E4622467F
:100D4000043A032A46F8045BFAD8221F22F0030271
:100D50000432134404F003042CB1C9B21C4403F858
:100D6000011BA342FBD1F0BC704714460346C6E703
:100D7000024B0A460146186800F02AB860040720B2
:100D8000024B13B1024800F005B8704700000000A4
:100D9000A10D0800014600200246034600F02CB8D1
:100DA00038B5094D094C641BA41018BF05EB840528
:100DB00005D0013C55F8043D9847002CF9D1BDE819
:100DC000384000F0E5BD00BF9C190800A0190800DC
:100DD00038B5084C00230546084611462360FFF746
:100DE0003AFD431C00D038BD2368002BFBD02B609C
:100DF00038BD00BFB80B0720F0B5274C85B026687A
:100E00000746D6F84841002C40D065681F2D1EDDEE
:100E1000224818B94FF0FF3005B0F0BD4FF4C8704C
:100E2000039102920193AFF3008003990446029A62
:100E3000019B0028EED0D6F8485100202560606064
:100E40000546C6F84841C4F88801C4F88C013FB98A
:100E50006B1C00200235636044F8251005B0F0BD1E
:100E60000126AE4004EB8500C0F88820D4F8882124
:100E7000022F42EA0602C4F88821C0F80831E7D1FF
:100E8000D4F88C311E43C4F88C61E1E706F5A674F2
:100E9000C6F84841B9E700BF741908000000000017
:100EA000000E0E40000100000B00000001000000D9
:100EB0000000000004000000FFFFFFFF000E0E40D6
:100EC000000200000B000000010000000000000014
:100ED00004000000FFFFFFFF00100E4000000002B2
:100EE0000C000000020000000000000014000000E0
:100EF000FFFFFF0000120E40000000100D00000078
:100F0000020000000000000014000000FFFFFF0EC0
:100F100000120E40000000040D000000020000005E
:100F20000000000014000000FFFFFF0D00120E4043
:100F3000000000020D0000000200000000000000A0
:100F400014000000FFFFFF0C00120E400000000123
:100F50000D00000002000000000000000C00000076
:100F6000FFFF07FF00120E40000080000D00000090
:100F700002000000000000000C000000FFFF06FF60
:100F800000120E40000040000D00000002000000B2
:100F9000000000000C000000FFFF05FF00120E40E3
:100FA000000020000D000000020000000000000012
:100FB0000C000000FFFF04FF00120E4000000020A4
:100FC0000D000000020000000000000014000000FE
:100FD000FFFFFF0F00140E40800000000E00000015
:100FE000020000000000000014000000FFFFFF10DE
:100FF00000140E40000100000E000000020000007E
:101000000000000014000000FFFFFF1100100E4060
:10101000000000080C0000000200000000000000BA
:1010200014000000FFFFFF0100140E40100000003C
:101030000E0000000200000000000000040000009C
:10104000FFFFFFFF00140E40200000000E00000014
:10105000020000000000000004000000FFFFFFFF8E
:10106000000E0E40002000000B00000001000000F8
:101070000000000004000000FFFFFFFF000E0E4014
:10108000001000000B000000010000000000000044
:1010900004000000FFFFFFFF000E0E4000080000EC
:1010A0000B00000001000000000000000400000030
:1010B000FFFFFFFF000E0E40000400000B000000C9
:1010C000010000000000000004000000FFFFFFFF1F
:1010D00000100E40001000000C0000000100000095
:1010E0000000000004000000FFFFFFFF00100E40A2
:1010F000002000000C0000000100000000000000C3
:1011000004000000FFFFFFFF00100E40000000047D
:101110000C000000040000000000000004000000BB
:10112000FFFFFFFF000E0E40004000000B0000001C
:10113000040000000000000004000000FFFFFFFFAB
:10114000000E0E40008000000B00000004000000B4
:101150000000000004000000FFFFFFFF00140E402D
:10116000010000000E00000004000000000000006C
:1011700004000000FFFFFFFF00140E40020000000B
:101180000E00000004000000000000000400000049
:10119000FFFFFFFF00140E40040000000E000000DF
:1011A000040000000000000004000000FFFFFFFF3B
:1011B00000140E40080000000E00000004000000B3
:1011C0000000000004000000FFFFFFFF00140E40BD
:1011D000400000000E0000000400000000000000BD
:1011E00004000000FFFFFFFF00140E40000200009B
:1011F0000E000000040000000000000004000000D9
:10120000FFFFFFFF000E0E40800000000B000000FB
:10121000040000000000000004000000FFFFFFFFCA
:1012200000140E40000400000E0000000400000046
:101230000000000004000000FFFFFFFF00120E404E
:10124000020000000D00000004000000000000008B
:1012500004000000FFFFFFFF00120E40040000002A
:101260000D00000004000000000000000400000069
:10127000FFFFFFFF00120E40080000000D000000FD
:10128000040000000000000004000000FFFFFFFF5A
:1012900000120E40100000000D00000004000000CD
:1012A0000000000004000000FFFFFFFF00120E40DE
:1012B000200000000D0000000400000000000000FD
:1012C00004000000FFFFFFFF00120E40400000007E
:1012D0000D000000040000000000000004000000F9
:1012E000FFFFFFFF00120E40800000000D00000015
:1012F000040000000000000004000000FFFFFFFFEA
:1013000000120E40000100000D000000040000006B
:101310000000000004000000FFFFFFFF00120E406D
:10132000000200000D0000000400000000000000AA
:1013300004000000FFFFFFFF000E0E400000080049
:101340000B0000000400000000000000040000008A
:10135000FFFFFFFF000E0E40000010000B0000001A
:10136000040000000000000004000000FFFFFFFF79
:1013700000120E40000008000D00000004000000F4
:101380000000000004000000FFFFFFFF00120E40FD
:10139000000004000D000000040000000000000038
:1013A00004000000FFFFFFFF00120E4000000200DB
:1013B0000D00000004000000000000000400000018
:1013C000FFFFFFFF00120E40000001000D000000B3
:1013D000040000000000000004000000FFFFFFFF09
:1013E00000120E40008000000D000000040000000C
:1013F0000000000004000000FFFFFFFF00120E408D
:10140000004000000D00000004000000000000008B
:1014100004000000FFFFFFFF00120E40002000004C
:101420000D000000040000000000000004000000A7
:10143000FFFFFFFF00120E40001000000D00000033
:10144000040000000000000004000000FFFFFFFF98
:1014500000100E40000020000C00000004000000FE
:101460000000000004000000FFFFFFFF00100E401E
:10147000004000000C00000004000000000000001C
:1014800004000000FFFFFFFF000E0E4000000100FF
:101490000B0000000300000000000000020000003C
:1014A0000007FFFF000E0E40000000010B000000CF
:1014B0000300000000000000020000000106FFFF22
:1014C000000E0E40000080000B0000000300000032
:1014D00000000000020000000205FFFF000E0E40A9
:1014E000000040000B0000000300000000000000AE
:1014F000020000000304FFFF000E0E404000000049
:101500000B000000030000000000000002000000CB
:101510000403FF05000E0E40100000000B00000049
:101520000300000000000000020000000502FFFFB1
:10153000000E0E40080000000B0000000300000039
:1015400000000000020000000601FF03000E0E4034
:10155000040000000B000000030000000000000079
:10156000020000000700FF0200100E400000020011
:101570000C0000000300000000000000020000005A
:10158000080AFFFF00100E40000004000C000000DD
:10159000030000000000000002000000090BFFFF34
:1015A00000100E40000008000C00000003000000C6
:1015B00000000000020000000A0CFFFF00100E40B7
:1015C000000010000C0000000300000000000000FC
:1015D000020000000B0DFFFF00100E400080000015
:1015E0000C000000030000000000000002000000EA
:1015F0000C10FFFF00100E40000001000C00000066
:101600000300000000000000020000000D11FFFFB9
:10161000000E0E40020000000B0000000100000060
:1016200000000000040000000EFFFFFF000E0E404F
:10163000010000000B00000001000000000000009D
:10164000040000000FFFFFFF000E0E40000002002C
:101650000B0000000100000000000000040000007A
:10166000FFFFFFFF000E0E40000004000B00000013
:10167000010000000000000004000000FFFFFFFF69
:1016800000120E40000000400D00000004000000A9
:101690000000000004000000FFFFFFFF000E0E40EE
:1016A000000020000B00000004000000000000000B
:1016B00004000000FFFFFFFF000E0E4000000002CC
:1016C0000B0000000100000000000000040000000A
:1016D000FFFFFFFF000E0E40000000040B000000A3
:1016E000010000000000000004000000FFFFFFFFF9
:1016F000000E0E40000000080B000000010000007A
:101700000000000004000000FFFFFFFF000E0E407D
:10171000000000100B0000000100000000000000AD
:1017200004000000FFFFFFFF00100E4000008000DB
:101730000C00000002000000000000000400000097
:10174000FFFFFFFF000E0E40000006000B00000030
:10175000010000000000000005000000FFFFFFFF87
:1017600000100E40003000000C00000001000000DE
:101770000000000005000000FFFFFFFF000E0E400C
:10178000000300000B00000001000000000000004A
:1017900005000000FFFFFFFF000E0E40000C0000E0
:1017A0000B00000001000000000000000500000028
:1017B000FFFFFFFF000E0E40003000000B00000096
:1017C000010000000000000005000000FFFFFFFF17
:1017D00000140E40300000000E0000000200000067
:1017E0000000000005000000FFFFFFFF00100E409A
:1017F000000C00000C0000000100000000000000D0
:1018000004000000FFFFFFFF00100E40000020005A
:101810000C000000020000000000000004000000B6
:10182000FFFFFFFF000E0E40000000200B00000035
:10183000010000000000000004000000FFFFFFFFA7
:1018400000100E40008000000C00000001000000AD
:101850000000000004000000FFFFFFFF00100E402A
:10186000004000000C00000001000000000000002B
:1018700004000000FFFFFFFF000E0E400300000009
:101880000B00000001000000000000000500000047
:10189000FFFFFFFF00100E4000C000000C00000022
:1018A000010000000000000005000000FFFFFFFF36
:1018B0000000000000000000000000000000000028
:1018C0000000000000000000FFFFFFFF000000001C
:1018D0000800000010000000180000004000000098
:1018E00050000000600000007000000000020000D6
:1018F0004002000080020000C0020000000300005F
:101900004003000080030000C0030000000000004E
:101910000000000000000000A50A0800690C080093
:10192000350A0800630A0800470A08008D0A080003
:10193000C90B0800F90A0800310A0800000000007D
:101940000000000000000000A50A0800690C080063
:10195000350A0800630A0800470A08008D0A0800D3
:101960002B0C0800F90A0800310A080000000000EA
:101970004300000038000720F8B500BFF8BC08BCE1
:101980009E467047810D08001901080031030800C8
:10199000F8B500BFF8BC08BC9E467047F5000800CB
:1019A00072B6064B9A68D107FBD5054A5A609A6809
:1019B000D207FCD5034A044B1A60FEE7000A0E402A
:1019C0000C01005A050000A5001A0E4000093D0058
:1019D000FFFFFFFF000000000000000024030720BD
:1019E0008C030720F4030720000000000000000023
:1019F00000000000000000000000000000000000E7
:101A00000000000000000000000000007019080045
:101A100000000000000000000000000000000000C6
:101A200000000000000000000000000000000000B6
:101A300000000000000000000000000000000000A6
:101A40000000000000000000000000000000000096
:101A50000000000000000000000000000000000086
:101A60000000000000000000000000000000000076
:101A70000000000000000000000000000000000066
:101A800001000000000000000E33CDAB34126DE603
:101A9000ECDE05000B00000000000000000000006C
:101AA0000000000000000000000000000000000036
:101AB0000000000000000000000000000000000026
:101AC0000000000000000000000000000000000016
:101AD0000000000000000000000000000000000006
:041E0000380007207F
:040000038000015127
:00000001FF
